:020000040000FA
:06000000E5EF06F012001E
:020006001200E6
:08000800DACFE4FFE652F2A496
:1000100014D0F294FC0ED76E170ED66E00010A2B88
:10002000000E0B230A51E808030E0B5506E20A6B7B
:100030000B6B00010C2B000E0D23F2A208D0000167
:100040001051111103E1010E106F116BF292F0B01B
:0A005000F090E552E5CFDAFF110051
:06005A0001004E0E000043
:080060000A0000000800000086
:08006800D89801D0D88850E8B7
:10007000D9CFE6FFDACFE6FFE1CFD9FFE2CFDAFF53
:1000800094E9089E07E701AE05D0006C011EE86AFE
:100090000122088E81EB0CF080EB0BF00A6A096AF2
:1000A0008E0E0D6E0E6A55EF00F00C500B100A10FC
:1000B000091055E00EBE4DD00CBE0CD00D500E10E8
:1000C00048E0D89009360A360B360C360D06D8A013
:1000D0000E06F2D70E5031E10D282FE009AE11D0F7
:1000E0007F0E091402E10AA00CD00A2AE86A0B224A
:1000F0000C2207E3D8800C320B320A320D2A0D286D
:100100001CE00D5026E08AEB00F08BEB01F00C3484
:10011000026E0D30036E0232039E08BE038EE5525E
:10012000E5CFDAFFE7CFD9FF4EE912007F0E036E6D
:10013000FF0E026E016E006EF2D77F0E08BEFF0E3C
:10014000036E02D07F0E036E800E026E016A006A9B
:10015000E6D708AE04D0800E036E026AF7D7036AB2
:10016000026AF4D7D89801D0D8884EE8D9CFE6FFF4
:10017000DACFE6FFE1CFD9FFE2CFDAFF94E9089EBC
:100180000BE703AE09D0006C011E021E031EE86AD5
:10019000012202220322088E83EB0CF082EB0BF08B
:1001A00081EB0AF080EB09F09E0E0D6E0E6A55EFA2
:1001B00000F045E8D9CFE6FFDACFE6FFE1CFD9FF7F
:1001C000E2CFDAFF8BE9086A34EC01F008B6EDEF14
:1001D00000F008AA0ED008BC05D07F0E016EFF0EFD
:1001E000006E23D0800E016E006A1FD0016A006A83
:1001F0001CD008B8FBD78F0E0360EDD77E0E0364CA
:10020000F5D78E0E035C05E0D89002320132032A46
:10021000F8D708AC06D0016C021EE86A022202AED2
:10022000E5D781EB00F082EB01F0E552E5CFDAFF94
:10023000E7CFD9FF47E912000636073602E3088404
:10024000087E06E10880076A066A056A046A1200E9
:10025000072803E0D88006321200D890063202E167
:1002600008821200088612000236033602E3088C68
:10027000087E06E10888036A026A016A006A1200C1
:10028000032803E0D88002321200D8900232EAE15B
:10029000088A120045E8D9CFE6FFDACFE6FFE1CFC2
:1002A000D9FFE2CFDAFF8FE90C6A1200F3DF0C808E
:1002B00001D0F0DFE86A03AE67EF01F0006C011EC9
:1002C000021E031E0122022203220CB00C7E07AE86
:1002D00072EF01F0046C051E061E071E05220622A1
:1002E00007220C7EF3EC03F007BEA3EF01F00CAE87
:1002F0000FD0046C051E061E071EE86A05220622A2
:100300000722086C091E0A1E0B1E09220A220B2254
:100310000CB00AD088EB00F089EB01F08AEB02F018
:100320008BEB03F00CA008D084EB00F085EB01F020
:1003300086EB02F087EB03F0E552E5CFDAFFE7CF7B
:10034000D9FF49E9000C0CBE79EF01F0E1DFFF0CA9
:100350004AE8D9CFE6FFDACFE6FFE1CFD9FFE2CF17
:10036000DAFF94E9086A1CEC01F034EC01F008B6FD
:1003700096EF00F008A205D008BA96EF00F09DEFC6
:1003800000F008BAA9EF00F008A005D008B896EF71
:1003900000F0A9EF00F008B89DEF00F00E6A7F0EA4
:1003A00007240D6EE86A0E2203500D5EE86A0E5AAD
:1003B0001A0E0F6E076A096A0A6A0B6A0C6A005005
:1003C000045E0150055A0250065A000E075A09E70A
:1003D000005004260150052202500622000E07227A
:1003E00001D0098AD8900436053606360736D890EB
:1003F00009360A360B360C360F2EE1D7065005109B
:100400000410D8A4098A55EF00F00EEC02F0E8B60B
:10041000000CE8B0000CE8B4000C010C47E8D9CFA0
:10042000E6FFDACFE6FFE1CFD9FFE2CFDAFF91E9CD
:10043000086A1CEC01F034EC01F008B64ED008AEAE
:1004400008D008A004D008A802D0088046D00890A0
:1004500044D00350075C0BE10250065C08E10150F8
:10046000055C05E10050045C02E1088036D0D8A0AC
:1004700002D0088E10D007500318071A031A06502E
:100480000218061A021A05500118051A011A04501A
:100490000018041A001A0350075C10E0FF0F09E06F
:1004A000089008B403D008AE088417D008AE0894AA
:1004B00014D0032AD8900232013200320050045E78
:1004C0000150055A0250065A06BEEAD7D8900436A3
:1004D00005360636072EF8D7C8D70850E552E5CFBF
:1004E000DAFFE7CFD9FF4FE9120044E8D9CFE6FFA2
:1004F000DACFE6FFE1CFD9FFE2CFDAFF8EE980EB7A
:1005000008F081EB09F082EB0AF083EB0BF004506A
:100510000802F350006EF450016E04500902F350CB
:100520000126000EF420026E04500A02F350022647
:10053000000EF420036E04500B02F3500326055006
:100540000802F3500126F4500222000E0322055047
:100550000902F3500226F450032205500A02F35018
:10056000032606500802F3500226F45003220650D8
:100570000902F350032607500802F3500326E55200
:10058000E5CFDAFFE7CFD9FF48E9000C4AE8D9CF39
:10059000E6FFDACFE6FFE1CFD9FFE2CFDAFF94E959
:1005A000086A1CEC01F034EC01F008B696EF00F09C
:1005B00008A205D008B896EF00F09DEF00F008AA59
:1005C00005D008B096EF00F09DEF00F008B002D023
:1005D00008A802D0A9EF00F00E6A035007240D6EA0
:1005E000E86A0E227E0E0D5EE86A0E5A096A0A6AF1
:1005F0000B6A0C6A02500602F4500C6EF3500B6E3C
:1006000001500602F3500A26F4500B22000E0C2271
:1006100002500502F3500A26F4500B22000E0C2261
:1006200000500602F3500926F4500A22000E0B2255
:100630000C2201500502F3500926F4500A22000E44
:100640000B220C2202500402F3500926F4500A2215
:10065000000E0B220C2200500502F4500926000E59
:100660000A220B220C2201500402F4500926000E2B
:100670000A220B220C2255EF00F0D88801D0D8981E
:100680004AE8D9CFE6FFDACFE6FFE1CFD9FFE2CFE4
:10069000DAFF94E9D8B8037E086A1CEC01F034EC68
:1006A00001F008B696EF00F008A20AD008AA03D01D
:1006B00008BE96EF00F008A4A2EF00F09FEF00F054
:1006C00008AA05D008ACA2EF00F09FEF00F008A048
:1006D0000AD008A808D008BE04D008A402D0ABEF06
:1006E00000F0AFEF00F0096A0E6A0350075C106E6D
:1006F00010E384EB0AF085EB0BF086EB0CF087EB54
:100700000FF080EB04F081EB05F082EB06F0083A85
:1007100009D080EB0AF081EB0BF082EB0CF083EB5D
:100720000FF0106C089E08BC088E8FEB0DF008B01F
:1007300081EF00F01A0E106081EF00F00D6A076A79
:1007400008A408D0046C051E061E071EE86A0522D0
:100750000622072208AC08D00A6C0B1E0C1E0D1EC8
:10076000E86A0B220C220D22116A105207E00734AE
:100770000632053204321132102EF9D704500A26FF
:1007800005500B2206500C2207500D2291EB09F068
:10079000089E0DAE0BD0096C0A1E0B1E0C1E0D1E02
:1007A000E86A0A220B220C220D22088E0DA006D028
:1007B000D8800C320B320A3209320F2A8FEB0DF03F
:1007C00055EF00F045E8D9CFE6FFDACFE6FFE1CFFD
:1007D000D9FFE2CFDAFF8FE90C6A1200F3DF0C8059
:1007E00003D0F0DF01D00C820B6A0A6A096A086A3A
:1007F000200EE76ED89004360536063607360836E2
:1008000009360A360B360050085C01500958025070
:100810000A5803500B5809E30050085E0150095A6A
:1008200002500A5A03500B5A042AE72EE4D70CB29E
:1008300012000CB00AD088EB00F089EB01F08AEBD3
:1008400002F08BEB03F00CA008D084EB00F085EBFA
:1008500001F086EB02F087EB03F0E552E5CFDAFF1B
:08086000E7CFD9FF49E91200BE
:08086800F28AF184D08ED76AF8
:10087000D66A9F0EE66E43EC06F041E9E66A030E87
:10088000E66EF8EC05F042E9120000010A6B0B6B12
:1008900000010C6B0D6B00010E6B0F6B1DEC07F074
:1008A0001AEF07F0D9CFE6FFE1CFD9FF83E9000EB9
:1008B000E66EE66A5EEC06F042E976EC06F0005081
:1008C000F35C0150F458F9E341E9E7CFD9FF120096
:1008D000D9CFE6FFE1CFD9FF83E944E8020EE66E07
:1008E000E66AE66AE66AE80EE66E030EE66EE66A19
:1008F000E66A00EBE6FF01EBE6FFE66AE66A800ED9
:10090000E66E840EE66E1E0EE66EE66A75EC02F08A
:1009100056EC01F056EC01F0B4EC00F0E552E5CFF6
:1009200019F0E5CF18F0E5CF17F0E7CF16F000018A
:100930001651036E1751046E1851056E1951066E4B
:1009400017D805EC02F000090AE0400EE66E9C0E96
:10095000E66EA8DF42E90CD83DEC03F0DFD711D8F2
:10096000D9EC00F09FDF42E945E9E7CFD9FF12005B
:10097000E66A400EE66E1C0EE66E470EE66EC1EFAE
:1009800004F003EBE6FF04EBE6FF05EBE6FF06EB06
:04099000E6FF12006C
:0C0994005AD83D0E926EF00E936E380E95
:1009A000946E120052D892689368946812005AD8D4
:1009B0000CE0060A06E0030A0CE1C20E01148910DD
:1009C000806E0F0E01148A10816EC70E01148B10F9
:1009D000826E50D047D80EE0060A07E0030A0FE106
:1009E000C20E0114E81C8914806E0F0E0114E81C5D
:1009F0008A14816EC70E0114E81C8B14826E3AD0E3
:100A000031D80CE0060A06E0030A0CE1C20E01141C
:100A10008918806E0F0E01148A18816EC70E01149A
:100A20008B18826E27D01ED80CE0060A06E0030A57
:100A30000BE1015080143D0B07D001508114F00BE5
:100A400003D001508214380B15D0010EE66EC20E91
:100A500015D8020EE66E0F0E11D8040EE66EC70E04
:100A60003EEF05F0D9CFE6FFE1CFD9FF83E9005093
:100A7000040A120041E9E7CFD9FF1200E66EAADFAF
:040A800042E9120035
:0C0A84005A0EF66E000EF76E000EF86EB3
:100A900000010900F550056F0900F550066F03E1EC
:100AA000056701D03DD00900F550006F0900F550F1
:100AB000016F0900F550026F09000900F550E96E59
:100AC0000900F550EA6E090009000900F550036FAE
:100AD0000900F550046F09000900F6CF07F0F7CFC1
:100AE00008F0F8CF09F000C0F6FF01C0F7FF02C020
:100AF000F8FF0001035302E1045307E00900F55039
:100B0000EE6E0307F8E20407F9D707C0F6FF08C046
:100B1000F7FF09C0F8FF00010507000E065BBFD70D
:020B20001200C1
:0E0B2200830EE66EBEEC06F041E9830EE66E31
:100B3000A6EC06F041E9120020EF07F023EC07F0E5
:100B400015EC07F00009FCE1E66AE6687F0EE66E48
:100B5000470EE66E330EE66EE66E530EE66E400E00
:100B6000E66EFEEC06F0F3CFE6FFF4CFE6FF34ECE2
:100B700000F0C6EC02F0A8EC01F0E552E5CF19F068
:100B8000E5CF18F0E5CF17F0E7CF16F016C012F05A
:0E0B900017C013F018C014F019C015F01200B1
:020B9E00D9CFAD
:100BA000E6FFDACFE6FFE1CFD9FFE2CFDAFF83E954
:100BB000F09000A202D0F18A01D0F19A00A002D0F8
:100BC000F18E01D0F19E00AC02D0F18001D0F19005
:100BD00000AC02D0F08C01D0F09C00AE02D0F086C8
:100BE00001D0F09641E9E5CFDAFFE7CFD9FF120057
:100BF000D9CFE6FFDACFE6FFE1CFD9FFE2CFDAFFC8
:100C000084E9F30E0014CC6E7F0E0114E824CD6E3F
:100C1000CF6ACE6A9E9001AE02D09D8001D09D9099
:100C2000A49000A402D0A38001D0A390CCBECC8617
:0E0C3000CD8041E9E5CFDAFFE7CFD9FF120012
:020C3E00D9CF0C
:100C4000E6FFDACFE6FFE1CFD9FFE2CFDAFF83E9B3
:100C5000F29200A202D0F18C01D0F19C00A002D04F
:100C6000F18E01D0F19E00AC02D0F18001D0F19064
:100C700000AE02D0F28801D0F29841E9E5CFDAFF68
:060C8000E7CFD9FF1200CE
:0A0C8600D9CFE6FFDACFE6FFE1CF99
:100C9000D9FFE2CFDAFF83E97F0E0014D56ED76A61
:100CA000D66AF29400AE02D0F28A01D0F29AD58EC2
:0C0CB00041E9E5CFDAFFE7CFD9FF1200E1
:040CBC00D9CFE6FFA7
:100CC000DACFE6FFE1CFD9FFE2CFDAFF84E942E8ED
:100CD00080EB04F081EB05F005EBCFFF04EBCEFFDA
:0C0CE00043E9E5CFDAFFE7CFD9FF1200AF
:040CEC00D9CFE6FF77
:100CF000DACFE6FFE1CFD9FFE2CFDAFF82E942E8BF
:100D0000CE50026ECF50036E02EBF3FF03EBF4FF05
:0C0D100043E9E5CFDAFFE7CFD9FF12007E
:040D1C00F90E946ECA
:100D2000826AFFD734EC04F0CAEC04F091EC05F0D1
:100D30000AEC07F0F2EC06F0F28E120045EC04F03B
:0C0D4000D2EC04F09CEC05F0FDEF06F096
:040D4C00D9CFE6FF16
:100D5000DACFE6FFE1CFD9FFE2CFDAFF83E97C0EFD
:100D600000140001166F830EC2141611C26EC282E7
:0C0D700041E9E5CFDAFFE7CFD9FF120020
:040D7C00D9CFE6FFE6
:100D8000DACFE6FFE1CFD9FFE2CFDAFF83E97C0ECD
:100D900000140001166F830EC2141611C26E41E9D1
:0A0DA000E5CFDAFFE7CFD9FF12001C
:060DAA00000EF36E00EEE6
:100DB00000F0080E01D81200EA6002D0EE6AFCD7FB
:0A0DC000F350E9601200EE6AFCD760
:060DCA0013EE00F023EE21
:100DD00000F0F86A42EC05F026EC07F08EEC06F025
:040DE000FBD712002B
:0C0DE400040EBA6EF90EBB6E0C0EBD6E54
:0C0DF000FB0E946E190EBE6E1200120075
:040DFC00C4CF18F058
:100E000018C019F00001186BC3501811F36E19C007
:040E1000F4FF1200D9
:0C0E1400030EC16EE6681FEC06F041E919
:0A0E2000E668CFEC05F041E912008E
:060E2A00C250020B01E0C2
:040E3000010E12009D
:060E3400CD909D9012001C
:060E3A00D59EF29A1200A1
:060E4000C2909D9C12000F
:040E4600C282120052
:020E4A00120094
:020E4C00120092
:020E4E000000A2
:060E50000000000000009C
:080F8800D8CFE4FFE0CFE4FF45
:100F9000E46EDACFE4FFE652E552E5CFDAFFE55042
:0A0FA000E5CFE0FFE5CFD8FF100019
:020000040030CA
:01000600C534
:00000001FF
