:020000040000FA
:06000000F4EF0BF012000A
:020006001200E6
:08000800DACFE4FFE9CFE4FFC9
:10001000EACFE4FFF3CFE4FFF4CFE4FFE652F2A42B
:1000200022D00001102B000E1123F294F00ED76E97
:100030005F0ED66E010E105D000E115907E3000130
:10004000002B000E01230001106B116B0001005109
:10005000E808030E015566E2006B016B0001022BFC
:10006000000E03235FD0F2A24DD010C01CF011C0CF
:100070001DF000C018F001C019F002C014F003C058
:1000800015F000011A511C5D0001086F00011B51A1
:100090001D590001096F0A6B0B6B00011251145DB1
:1000A0000001286F0001135115590001296FE80E56
:1000B0002903F3CF29F0030E2803F3502927E80E74
:1000C0002803F3CF28F0F450292738D8000116511F
:1000D000185D0001286F0001175119590001296F9F
:1000E0002DD80001010E0C6F10C01AF011C01BF0CA
:1000F00000C016F001C017F002C012F003C013F0E8
:10010000F29210D0F0A00DD000010651071107E1C6
:1001100000010F5104E0010E0001066F076BF09023
:1001200001D0FFD7E552E5CFF4FFE5CFF3FFE5CFF0
:10013000EAFFE5CFE9FFE5CFDAFF11000A0E290358
:10014000F3CF29F02803F3CF28F0F45029272A6BA6
:100150002B6B080EE96E000EEA6EEE502827EE506B
:100160002923EE502A23EE502B2328C008F029C063
:0C01700009F02AC00AF02BC00BF01200AE
:04017C0003006D18F7
:100180000000100000000E0000005D1800000000DC
:100190000000100000005C180000340000000100A6
:0201A00000005D
:0E01A200D89801D0D8884EE8D9CFE6FFDACF42
:1001B000E6FFE1CFD9FFE2CFDAFF94E9089E0BE733
:1001C00003AE09D0006C011E021E031EE86A012264
:1001D00002220322088E83EB0CF082EB0BF081EB02
:1001E0000AF080EB09F09E0E0D6E0E6AF8EF00F03B
:1001F0000C500B100A10091055E00EBE4DD00CBE6D
:100200000CD00D500E1048E0D89009360A360B3647
:100210000C360D06D8A00E06F2D70E5031E10D288F
:100220002FE009AE11D07F0E091402E10AA00CD014
:100230000A2AE86A0B220C2207E3D8800C320B3220
:100240000A320D2A0D281CE00D5026E08AEB00F042
:100250008BEB01F00C34026E0D30036E0232039E04
:1002600008BE038EE552E5CFDAFFE7CFD9FF4EE9AE
:1002700012007F0E036EFF0E026E016E006EF2D74B
:100280007F0E08BEFF0E036E02D07F0E036E800E3F
:10029000026E016A006AE6D708AE04D0800E036ED3
:1002A000026AF7D7036A026AF4D745E8D9CFE6FFB6
:1002B000DACFE6FFE1CFD9FFE2CFDAFF8BE9086AB8
:1002C000B0EC01F008B669EF01F008AA0ED008BC46
:1002D00005D07F0E016EFF0E006E23D0800E016EE2
:1002E000006A1FD0016A006A1CD008B8FBD78F0EC5
:1002F0000360EDD77E0E0364F5D78E0E035C05E038
:10030000D89002320132032AF8D708AC06D0016C2B
:10031000021EE86A022202AEE5D781EB00F082EB12
:1003200001F0E552E5CFDAFFE7CFD9FF47E9120048
:100330000636073602E30884087E06E10880076A6D
:10034000066A056A046A1200072803E0D8800632AC
:100350001200D890063202E10882120008861200CC
:100360000236033602E3088C087E06E10888036A39
:10037000026A016A006A1200032803E0D880023290
:100380001200D8900232EAE1088A120045E8D9CF7B
:10039000E6FFDACFE6FFE1CFD9FFE2CFDAFF8FE960
:1003A0000C6A1200F3DF0C8001D0F0DFE86A03AEC4
:1003B000E3EF01F0006C011E021E031E0122022267
:1003C00003220CB00C7E07AEEEEF01F0046C051EAC
:1003D000061E071E0522062207220C7E35EC02F0BF
:1003E00007BE1FEF02F00CAE0FD0046C051E061EF8
:1003F000071EE86A052206220722086C091E0A1E4B
:100400000B1E09220A220B220CB00AD088EB00F046
:1004100089EB01F08AEB02F08BEB03F00CA008D023
:1004200084EB00F085EB01F086EB02F087EB03F044
:10043000E552E5CFDAFFE7CFD9FF49E9000C0CBE62
:10044000F5EF01F0E1DFFF0C45E8D9CFE6FFDACFA9
:10045000E6FFE1CFD9FFE2CFDAFF8FE90C6A1200A5
:10046000F3DF0C8003D0F0DF01D00C820B6A0A6A44
:10047000096A086A200EE76ED890043605360636FB
:100480000736083609360A360B360050085C01502C
:10049000095802500A5803500B5809E30050085EEF
:1004A0000150095A02500A5A03500B5A042AE72EE7
:1004B000E4D70CB212000CB00AD088EB00F089EB44
:1004C00001F08AEB02F08BEB03F00CA008D084EB78
:1004D00000F085EB01F086EB02F087EB03F0E552CC
:1004E000E5CFDAFFE7CFD9FF49E912007FEC02F050
:1004F000E8B6000CE8B0000CE8B4000C010C47E8CA
:10050000D9CFE6FFDACFE6FFE1CFD9FFE2CFDAFFBE
:1005100091E9086A98EC01F0B0EC01F008B64ED011
:1005200008AE08D008A004D008A802D0088046D0A1
:10053000089044D00350075C0BE10250065C08E1D0
:100540000150055C05E10050045C02E1088036D0F2
:10055000D8A002D0088E10D007500318071A031A2B
:1005600006500218061A021A05500118051A011A37
:1005700004500018041A001A0350075C10E0FF0F23
:1005800009E0089008B403D008AE088417D008AE7C
:10059000089414D0032AD89002320132003200505D
:1005A000045E0150055A0250065A06BEEAD7D8909A
:1005B000043605360636072EF8D7C8D70850E55258
:1005C000E5CFDAFFE7CFD9FF4FE9120044E8D9CFF2
:1005D000E6FFDACFE6FFE1CFD9FFE2CFDAFF8EE91F
:1005E00080EB08F081EB09F082EB0AF083EB0BF073
:1005F00004500802F350006EF450016E04500902DA
:10060000F3500126000EF420026E04500A02F3504B
:100610000226000EF420036E04500B02F350032652
:1006200005500802F3500126F4500222000E032266
:1006300005500902F3500226F450032205500A0225
:10064000F350032606500802F3500226F45003220A
:1006500006500902F350032607500802F350032600
:10066000E552E5CFDAFFE7CFD9FF48E9000CD8889B
:1006700001D0D8984AE8D9CFE6FFDACFE6FFE1CF3C
:10068000D9FFE2CFDAFF94E9D8B8037E086A98EC84
:1006900001F0B0EC01F008B639EF01F008A20AD081
:1006A00008AA03D008BE39EF01F008A445EF01F015
:1006B00042EF01F008AA05D008AC45EF01F042EF87
:1006C00001F008A00AD008A808D008BE04D008A4E9
:1006D00002D04EEF01F052EF01F0096A0E6A0350AA
:1006E000075C106E10E384EB0AF085EB0BF086EBF1
:1006F0000CF087EB0FF080EB04F081EB05F082EB60
:1007000006F0083A09D080EB0AF081EB0BF082EB9F
:100710000CF083EB0FF0106C089E08BC088E8FEB7A
:100720000DF008B024EF01F01A0E106024EF01F074
:100730000D6A076A08A408D0046C051E061E071E71
:10074000E86A05220622072208AC08D00A6C0B1EB4
:100750000C1E0D1EE86A0B220C220D22116A10528B
:1007600007E007340632053204321132102EF9D771
:1007700004500A2605500B2206500C2207500D2269
:1007800091EB09F0089E0DAE0BD0096C0A1E0B1EF2
:100790000C1E0D1EE86A0A220B220C220D22088E66
:1007A0000DA006D0D8800C320B320A3209320F2A43
:0807B0008FEB0DF0F8EF00F0F3
:0807B800F0D981E942E8016A71
:1007C000026A016A026A030ED89002BE03D0015C7D
:1007D000000E025806E2030E26DA012A000E02225B
:1007E000F2D7020E20DA020EE66EBED9080E15DA36
:1007F0000B0E13DA010E11DA060E0FDA19DAFBD13D
:10080000CCD982E9005006E0010A09E1E66AACD9D8
:100810000FDA05D0E66AA8D9080EE66EA5D941E937
:10082000E7CFD9FF1200B9D987E943E8086A096A16
:10083000025003100410051007E100EBE9FF01EB83
:10084000EAFF300EEF6E44D0025003100410051082
:1008500025E0A8D933EC02F0E552E5CF33F0E5CF3F
:1008600032F0E5CF31F0E7CF30F0300E0001302725
:10087000000E3123322333230850082A88D930C090
:10088000EFFF90D930EC02F0E552E550056EE550EF
:10089000046EE550036EE750026ED6D7085077D944
:1008A000EF6A08060850095C13E2085070D9EF504F
:1008B000076E09506CD9EF50E66E085068D9E552C2
:1008C000E750EF6E095063D907EBEFFF092AE9D72C
:1008D00044E9E7CFD9FF120060D985E978E8396AA1
:1008E0003A6A3B6A3C6A0250031004E1300EE66E3D
:1008F00067D956D0D950070FE66EDACFE6FF02EB84
:10090000E6FF03EBE6FFE66AE66A8DDF46E9396A51
:100910003A6A080ED8903ABE03D0395C000E3A58B5
:1009200019E227D9EFCF30F0300E0001305D0BE334
:1009300020D9EF50390807E31CD9EF50E66E66D98D
:10094000E552E75002D062D9200EEF6E392A000E30
:100950003A22DFD700013928306F000E3A20316F7C
:1009600030510524E96E31510620EA6EEF6A05EB3D
:10097000E9FF06EBEAFFEF5013E000503B5C01504B
:100980003C580EE205EBE9FF06EBEAFF052A000EF4
:100990000622EFCFE6FF14D93B2A000E3C22E7D710
:1009A00079E9E7CFD9FF1200F8D883E942E880EB74
:1009B00003F081EB04F003EBF6FF04EBF7FF080014
:1009C000F55018E0080E00010024306F000E0120E1
:1009D000316F3051035C315104580CE203EBF6FFE8
:1009E00004EBF7FF032A000E04220800F5CFE6FF10
:1009F000E7D8E1D700D1020EE9EF05F0CED883E9C0
:100A000042E8036A046A00EBF3FF01EBF4FF010E16
:100A1000F31801E1F45006E0F35015E1F45013E14E
:100A2000EADF11D0E8DF036A046A280ED89004BE1A
:100A300003D0035C000E045806E2140ECAD8032A41
:100A4000000E0422F2D7D7D0A8D884E942E80038B3
:100A50000F0B0F0B046E0F0E0014056E61D804EB24
:100A6000E6FFCDD805EBE6FFCAD8C5D096D884E915
:100A7000025005E0040EE66E400EA8D806D0040E23
:100A8000E66E400EE66E61EC06F042E9015003E0CE
:100A9000040ED3D802D0040EA9D842E900A604D08F
:100AA000040EE66E93D805D0040EE66EE66E61EC99
:100AB00006F042E900A405D0040EE66E010E86D8C9
:100AC00006D0040EE66E010EE66E61EC06F042E919
:100AD00000A205D0040EE66E020E78D806D0040EF1
:100AE000E66E020EE66E61EC06F042E900A005D06B
:100AF000010EE66E400E6AD806D0010EE66E400E7C
:100B0000E66E61EC06F042E9010E97D842E9020E6A
:100B100067D8010E6BD842E941E9E7CFD9FF12004F
:100B2000040E8BD842E9040EE66EE66EA6EC06F0E3
:100B300042E9040EE66EE66E85EC06F042E9000935
:100B4000F8E1040E53D842E9040EE66EE66E94EC2A
:100B500006F042E91200E66A53DE41E91200010E96
:100B6000E66E4EDE41E91200E66AE66A7FDF43E99F
:100B70001200D950070FE66EDACFE6FFFE0EE35003
:100B80003924E96E41E9E5503A20EA6E120000246A
:100B9000E96E000E0120EA6E1200D9CFE6FFE1CF28
:100BA000D9FF12000A0EE66EE66AE66AE66A02EB12
:100BB000E6FF03EBE6FF04EBE6FF05EBE6FF1200C2
:100BC000E66A010EE66E40DF43E91200E66E4FEF83
:100BD00006F0E66EE66AE66A37DF43E990EF05F075
:100BE000E66EE66AFCEC06F042E91200E66E800E64
:100BF000E66E61EF06F043E9E7CFD9FF120001EBA3
:100C0000E6FF02EBE6FF32DF43E91200055039242C
:100C1000E96E06503A20EA6E1200E66EA5DF80DF2C
:100C2000E66AB4EF05F0E66E9FDF0A0EF0EF05F01E
:100C30000F0EE66E99DF90EF05F0E66E800EE6EFA0
:020C400005F0BD
:0E0C4200010EE66E800E9CD8400E9AD8800EF1
:100C5000A4D8010EE66E400E94D8020E92D8010E72
:100C600090D89BD8020EE66E010E93D8020EE66E67
:100C700090D80F015C915C935C99020EE66E040EB5
:100C800088D8020EE66E080E84D80F015C955C973A
:100C9000010EE66E020E81D80F015B93120069D837
:100CA0000CE0060A06E0030A0BE101508910806E91
:100CB00007D001508A10816E03D001508B10826ED4
:100CC00064D057D80CE0060A06E0030A0BE1011CC9
:100CD0008914806E07D0011C8A14816E03D0011C18
:100CE0008B14826E52D045D80CE0060A06E0030A47
:100CF0000BE101508918806E07D001508A18816E6F
:100D000003D001508B18826E40D033D80AE0060A17
:100D100005E0030A08E10150801405D00150811458
:100D200002D00150821431D024D80CE0060A06E02B
:100D3000030A0BE1011C9214926E07D0011C93145C
:100D4000936E03D0011C9414946E1FD012D80CE043
:100D5000060A06E0030A0BE101509210926E07D0DA
:100D600001509310936E03D001509410946E0DD0E7
:100D70001200D9CFE6FFE1CFD9FF83E90050040A82
:100D800012000BD8040EE66E120041E9E7CFD9FF3E
:100D90001200E66EDBDF42E91200E66EC5DF42E9D3
:020DA00012003F
:0E0DA200F28AF184D08ED76AD66A9F0EE66E72
:100DB00050EC0BF041E9E66A030EE66EDFEC0AF058
:100DC00042E9120025EC0CF022EF0CF0D9CFE6FF3F
:100DD000E1CFD9FF83E9000EE66EE66A85EC0BF001
:100DE00042E99DEC0BF00050F35C0150F458F9E33C
:100DF00041E9E7CFD9FF1200D9CFE6FFE1CFD9FF14
:100E000083E944E8E80EE66E030EE66EE66AE66AFB
:100E100000EBE6FF01EBE6FFE66AE66AE66A090E2A
:100E2000E66E3D0EE66EE66AE6EC02F0D2EC01F00C
:100E3000D3EC00F0E552E5CF33F0E5CF32F0E5CF6B
:100E400031F0E7CF30F000013051036E3151046EC4
:100E50003251056E3351066E17D876EC02F0000958
:100E60000AE0400EE66E9C0EE66EB0DF42E90CD85A
:100E700037EC03F0DFD711D855EC01F0A7DF42E9DA
:100E800045E9E7CFD9FF1200E66A400EE66E1C0E78
:100E9000E66E470EE66E4DEF07F003EBE6FF04EB60
:0C0EA000E6FF05EBE6FF06EBE6FF1200A4
:040EAC001E0EE66EC2
:100EB0006BEC0BF041E9BD6AC00EBB6E9494BA6A4C
:100EC0000C0EBD6E430EBE6EBC6ABA84FC0EE66E9E
:100ED0003F0EE66E83EC0AF042E9B990B986020E45
:100EE000E66E100EE66E94EC06F042E91200D9CFE1
:100EF000E6FFE1CFD9FF85E9A00EE66E860EE66E2D
:100F0000010EE66EE66AC00EE66EE66AE66AE66A1C
:100F100000EBE6FF01EBE6FF02EBE6FF03EBE6FF8B
:100F2000E6EC02F030EC02F0E552E5CF33F0E5CF2D
:100F300032F0E5CF31F0E7CF30F030C0BEFF41E90D
:100F4000E7CFD9FF1200E66AE66AE66AE66ACFDF13
:040F500044E912005E
:0C0F5400D9CFE6FFDACFE6FFE1CFD9FFEE
:100F6000E2CFDAFF83E9F09000A202D0F18A01D04B
:100F7000F19A00A002D0F18E01D0F19E00AC02D017
:100F8000F18001D0F19000AC02D0F08C01D0F09C47
:100F900000AE02D0F08601D0F09641E9E5CFDAFF4D
:060FA000E7CFD9FF1200AB
:020FA600120037
:080FA800D8CFE4FFE0CFE4FF25
:100FB000E46EDACFE4FFE652E552E5CFDAFFE55022
:0A0FC000E5CFE0FFE5CFD8FF1000F9
:060FCA00D9CFE6FFE1CFE4
:100FD000D9FF81E95AE8016A026A036A046A056A6C
:100FE000066A076A086A096A0A6A0B6A0C6A0D6A65
:100FF0000E6A0F6A106A116A126A136A146A156A15
:10100000166ADC0E176E050E186E196A1A6ABDD9BB
:10101000E66A58EC0AF041E974EC0AF0F350016E0C
:10102000F450026E01EB30F002EB31F00001305170
:101030000F6E3151106E116A126A880EE66E130E31
:10104000E66EE66AE66A0FEBE6FF10EBE6FF11EBF1
:10105000E6FF12EBE6FFE6EC02F0E552E5CF33F0F7
:10106000E5CF32F0E5CF31F0E7CF30F0000130517D
:101070000F6E3151106E3251116E3351126EE6689F
:10108000E668E66AE66A0FEBE6FF10EBE6FF11EBB7
:10109000E6FF12EBE6FF30EC02F0E552E5CF33F06D
:1010A000E5CF32F0E5CF31F0E7CF30F0000130513D
:1010B0000F6E3151106E3251116E3351126E010E9E
:1010C000E66E58EC0AF041E974EC0AF0F350016E58
:1010D000F450026E01EB30F002EB31F000013051C0
:1010E000036E3151046E056A066A880EE66E130EB1
:1010F000E66EE66AE66A03EBE6FF04EBE6FF05EB65
:10110000E6FF06EBE6FFE6EC02F0E552E5CF33F052
:10111000E5CF32F0E5CF31F0E7CF30F000013051CC
:10112000036E3151046E3251056E3351066EE6681E
:10113000E668E66AE66A03EBE6FF04EBE6FF05EB2A
:10114000E6FF06EBE6FF30EC02F0E552E5CF33F0C8
:10115000E5CF32F0E5CF31F0E7CF30F0000130518C
:10116000036E3151046E3251056E3351066EDC0E42
:10117000176E050E186E196A1A6A06EC0BF0000954
:101180001AE10350DC08050E0454000E0554000E4D
:10119000065411E2880E035C130E0458000E055825
:1011A000000E065808E283EB17F084EB18F085EB8D
:1011B00019F086EB1AF0140EE66EE66AE66AE66A45
:1011C00017EBE6FF18EBE6FF19EBE6FF1AEBE6FF7D
:1011D000E6EC02F077EC07F044E9136A146A156A4A
:1011E000166AD880000E00010855000E0955000E41
:1011F0000A55000E0B552CE200010C0529E108C030
:10120000E6FF09C0E6FF0AC0E6FF0BC0E6FF080ED6
:10121000E66EE66AE66AE66AE6EC02F0080EE66E5C
:10122000840EE66EE66AE66A30EC02F0E552E5CF3F
:1012300033F0E5CF32F0E5CF31F0E7CF30F0000109
:101240003051136E3151146E3251156E3351166E8A
:1012500000010C6B0A0E135C000E1458000E15589A
:10126000000E165812E2380EE66E180EE66ED4EC3A
:1012700004F042E9010EE66EE66A13EBE6FF14EBBA
:10128000E6FF6CEC04F044E90AD0020EE66EE66A72
:1012900013EBE6FF14EBE6FF6CEC04F044E9320ECE
:1012A000E66E180EE66ED4EC04F042E9020EE66E2D
:1012B000040EE66E85EC06F042E9000909E07C0EBA
:1012C000E66EE66A010EE66E24EC05F043E91AD0FC
:1012D000020EE66E080EE66E85EC06F042E90009A5
:1012E00009E05E0EE66EE66A010EE66E24EC05F09D
:1012F00043E908D0200EE66EE66A010EE66E24ECA5
:1013000005F043E9010EE66EE66AFEEC04F042E900
:10131000300EE66E180EE66ED4EC04F042E9040ED0
:10132000E66EE66A17EBE6FF18EBE6FF6CEC04F0FE
:1013300044E9000EE66EE66AFEEC04F042E90001C4
:101340000651071102E045D81BD0020EE66E020ED0
:10135000E66E85EC06F042E900090CE100010D2B78
:10136000000E0E2300010A0E0D5D000E0E5901E362
:10137000FF0006D00001010E0F6F00010D6B0E6B18
:1013800047D65BE9E7CFD9FF12008F0ED31470095F
:10139000D36ED1EC06F0900EE66E010EE66EFCEC1C
:1013A00006F042E921EC06F0DCEC03F01CD0D1ECB5
:1013B00006F021EC06F0AFEC05F015D0F29EABEC98
:1013C00005F0E2EC06F0B8EC06F072EC0AF0A3EFE0
:1013D00007F000010D6B0E6BF1DF0300E8DF000189
:1013E000066B076B12004AEC0AF00DEC0CF056ECA1
:0613F00007F0F28E12006E
:0A13F6007C0EF66E010EF76E000E7D
:10140000F86E00010900F550236F0900F550246FB4
:1014100003E1236701D03DD00900F5501E6F09009C
:10142000F5501F6F0900F550206F09000900F550B5
:10143000E96E0900F550EA6E090009000900F5504F
:10144000216F0900F550226F09000900F6CF25F041
:10145000F7CF26F0F8CF27F01EC0F6FF1FC0F7FF2A
:1014600020C0F8FF0001215302E1225307E00900E8
:10147000F550EE6E2107F8E22207F9D725C0F6FFF6
:1014800026C0F7FF27C0F8FF00012307000E245BEA
:04149000BFD71200B0
:0C149400030EE66EE66A0B0EE66EB3EC8B
:1014A0000AF043E929D8E66EB5EC0BF041E91200E9
:1014B000D9CFE6FFE1CFD9FF82E90050010A09E068
:1014C000010A0CE1830EE66ECDEC0BF041E9830ED0
:1014D00001D012D8E66EB5EC0BF041E941E9E7CF57
:1014E000D9FF120028EF0CF02BEC0CF01DEC0CF0E7
:1014F0000009FCE101EF0CF08F0EE66ECDEC0BF075
:0615000041E98F0E12000C
:0A150600D9CFE6FFDACFE6FFE1CF10
:10151000D9FFE2CFDAFF84E93F0E0112FC0E001280
:10152000C00EBD100114BD6E0F0EBD100014BD6EB7
:101530003F0E015C02E1949410D0BF0E015C03E108
:10154000949493940AD07F0E015C03E0FF0E015C3B
:1015500004E1949493949392939841E9E5CFDAFF50
:06156000E7CFD9FF1200E5
:0A156600D9CFE6FFDACFE6FFE1CFB0
:10157000D9FFE2CFDAFF85E9C26AC16AC06A7C0E90
:101580000114C26E00EBC1FF0250040DF350380B82
:101590000001316F02380F0B070B306F800E021401
:1015A00030113111C06E01AE03D09E9C9D8CF28C27
:0E15B000C28041E9E5CFDAFFE7CFD9FF120094
:0215BE00D9CF83
:1015C000E6FFDACFE6FFE1CFD9FFE2CFDAFF84E929
:1015D000F30E0014CC6E7F0E0114E824CD6ECF6A9A
:1015E000CE6A9E9001AE02D09D8001D09D90A490C5
:1015F00000A402D0A38001D0A390CCBECC86CD8025
:0C16000041E9E5CFDAFFE7CFD9FF120087
:04160C00D9CFE6FF4D
:10161000E1CFD9FF81E941E8016A020EE66E040ECE
:10162000E66E85EC06F042E9016E015007E1010E1D
:10163000E66E020EE66E4FEC06F042E9015007E05E
:10164000010EE66E020EE66E61EC06F042E9015014
:0816500042E9E7CFD9FF1200C7
:08165800D9CFE6FFDACFE6FF6F
:10166000E1CFD9FFE2CFDAFF83E9F29200A202D004
:10167000F18C01D0F19C00A002D0F18E01D0F19E3E
:1016800000AC02D0F18001D0F19000AE02D0F2881F
:1016900001D0F29841E9E5CFDAFFE7CFD9FF120098
:1016A000D9CFE6FFDACFE6FFE1CFD9FFE2CFDAFF0D
:1016B00083E97F0E0014D56ED76AD66AF29400AE25
:1016C00002D0F28A01D0F29AD58E41E9E5CFDAFF55
:0616D000E7CFD9FF120074
:0A16D600D9CFE6FFDACFE6FFE1CF3F
:1016E000D9FFE2CFDAFF83E9FB0E0014BA6EBC6AC1
:1016F0009E9200AE02D09D8201D09D92BA8441E9B3
:0A170000E5CFDAFFE7CFD9FF1200B2
:06170A00D9CFE6FFDACFA3
:10171000E6FFE1CFD9FFE2CFDAFF84E942E880EBD0
:1017200004F081EB05F005EBCFFF04EBCEFF43E9BE
:0A173000E5CFDAFFE7CFD9FF120082
:06173A00D9CFE6FFDACF73
:10174000E6FFE1CFD9FFE2CFDAFF82E942E8CE50EF
:10175000026ECF50036E02EBF3FF03EBF4FF43E99D
:0A176000E5CFDAFFE7CFD9FF120052
:06176A00D9CFE6FFDACF43
:10177000E6FFE1CFD9FFE2CFDAFF83E97C0E001468
:101780000001306F830EC2143011C26EC28241E973
:0A179000E5CFDAFFE7CFD9FF120022
:06179A00D9CFE6FFDACF13
:1017A000E6FFE1CFD9FFE2CFDAFF83E97C0E001438
:1017B0000001306F830EC2143011C26E41E9E5CFD3
:0817C000DAFFE7CFD9FF1200A8
:0817C800000EF36E00EE00F0CC
:1017D000080E01D81200EA6002D0EE6AFCD7F3507E
:0817E000E9601200EE6AFCD77B
:0817E80013EE00F023EE00F007
:1017F000F86AFBEC09F02DEC0CF0E5EC07F0FBD7F8
:021800001200D4
:0E180200C4CF32F032C033F00001326BC3505D
:0A1810003211F36E33C0F4FF120032
:06181A00030EC16EE6683A
:101820002CEC0BF041E9E668AAEC07F041E9120064
:0A1830003A006B6D2F687200200073
:06183A00C250020B01E0A8
:04184000010E120083
:06184400CD909D90120002
:06184A00D59EF29A120087
:06185000C2909D9C1200F5
:04185600C282120038
:02185A0012007A
:01185C008FFC
:03185D0000000088
:0D186000000000000000000000000000007B
:03186D0000000078
:0B18700000000000000000000000006D
:020000040030CA
:0100000000FF
:0100010028D6
:010002005F9E
:010003003FBD
:01000500D327
:01000600C138
:010008000FE8
:01000900C036
:01000A000FE6
:01000B00E014
:01000C000FE4
:01000D0040B2
:00000001FF
